{
  "_format": "hh3-artifact-1",
  "contractName": "SentinelRWA",
  "sourceName": "contracts/SentinelToken.sol",
  "abi": [
    {
      "inputs": [],
      "stateMutability": "nonpayable",
      "type": "constructor"
    },
    {
      "inputs": [],
      "name": "AccessControlBadConfirmation",
      "type": "error"
    },
    {
      "inputs": [
        {
          "internalType": "address",
          "name": "account",
          "type": "address"
        },
        {
          "internalType": "bytes32",
          "name": "neededRole",
          "type": "bytes32"
        }
      ],
      "name": "AccessControlUnauthorizedAccount",
      "type": "error"
    },
    {
      "inputs": [
        {
          "internalType": "address",
          "name": "spender",
          "type": "address"
        },
        {
          "internalType": "uint256",
          "name": "allowance",
          "type": "uint256"
        },
        {
          "internalType": "uint256",
          "name": "needed",
          "type": "uint256"
        }
      ],
      "name": "ERC20InsufficientAllowance",
      "type": "error"
    },
    {
      "inputs": [
        {
          "internalType": "address",
          "name": "sender",
          "type": "address"
        },
        {
          "internalType": "uint256",
          "name": "balance",
          "type": "uint256"
        },
        {
          "internalType": "uint256",
          "name": "needed",
          "type": "uint256"
        }
      ],
      "name": "ERC20InsufficientBalance",
      "type": "error"
    },
    {
      "inputs": [
        {
          "internalType": "address",
          "name": "approver",
          "type": "address"
        }
      ],
      "name": "ERC20InvalidApprover",
      "type": "error"
    },
    {
      "inputs": [
        {
          "internalType": "address",
          "name": "receiver",
          "type": "address"
        }
      ],
      "name": "ERC20InvalidReceiver",
      "type": "error"
    },
    {
      "inputs": [
        {
          "internalType": "address",
          "name": "sender",
          "type": "address"
        }
      ],
      "name": "ERC20InvalidSender",
      "type": "error"
    },
    {
      "inputs": [
        {
          "internalType": "address",
          "name": "spender",
          "type": "address"
        }
      ],
      "name": "ERC20InvalidSpender",
      "type": "error"
    },
    {
      "anonymous": false,
      "inputs": [
        {
          "indexed": true,
          "internalType": "address",
          "name": "owner",
          "type": "address"
        },
        {
          "indexed": true,
          "internalType": "address",
          "name": "spender",
          "type": "address"
        },
        {
          "indexed": false,
          "internalType": "uint256",
          "name": "value",
          "type": "uint256"
        }
      ],
      "name": "Approval",
      "type": "event"
    },
    {
      "anonymous": false,
      "inputs": [
        {
          "indexed": false,
          "internalType": "uint8",
          "name": "minActive",
          "type": "uint8"
        },
        {
          "indexed": false,
          "internalType": "uint8",
          "name": "minVip",
          "type": "uint8"
        },
        {
          "indexed": true,
          "internalType": "address",
          "name": "admin",
          "type": "address"
        }
      ],
      "name": "PolicyUpdated",
      "type": "event"
    },
    {
      "anonymous": false,
      "inputs": [
        {
          "indexed": true,
          "internalType": "address",
          "name": "user",
          "type": "address"
        },
        {
          "indexed": false,
          "internalType": "uint8",
          "name": "newScore",
          "type": "uint8"
        },
        {
          "indexed": true,
          "internalType": "address",
          "name": "admin",
          "type": "address"
        }
      ],
      "name": "RiskScoreUpdated",
      "type": "event"
    },
    {
      "anonymous": false,
      "inputs": [
        {
          "indexed": true,
          "internalType": "bytes32",
          "name": "role",
          "type": "bytes32"
        },
        {
          "indexed": true,
          "internalType": "bytes32",
          "name": "previousAdminRole",
          "type": "bytes32"
        },
        {
          "indexed": true,
          "internalType": "bytes32",
          "name": "newAdminRole",
          "type": "bytes32"
        }
      ],
      "name": "RoleAdminChanged",
      "type": "event"
    },
    {
      "anonymous": false,
      "inputs": [
        {
          "indexed": true,
          "internalType": "bytes32",
          "name": "role",
          "type": "bytes32"
        },
        {
          "indexed": true,
          "internalType": "address",
          "name": "account",
          "type": "address"
        },
        {
          "indexed": true,
          "internalType": "address",
          "name": "sender",
          "type": "address"
        }
      ],
      "name": "RoleGranted",
      "type": "event"
    },
    {
      "anonymous": false,
      "inputs": [
        {
          "indexed": true,
          "internalType": "bytes32",
          "name": "role",
          "type": "bytes32"
        },
        {
          "indexed": true,
          "internalType": "address",
          "name": "account",
          "type": "address"
        },
        {
          "indexed": true,
          "internalType": "address",
          "name": "sender",
          "type": "address"
        }
      ],
      "name": "RoleRevoked",
      "type": "event"
    },
    {
      "anonymous": false,
      "inputs": [
        {
          "indexed": true,
          "internalType": "address",
          "name": "from",
          "type": "address"
        },
        {
          "indexed": true,
          "internalType": "address",
          "name": "to",
          "type": "address"
        },
        {
          "indexed": false,
          "internalType": "uint256",
          "name": "value",
          "type": "uint256"
        }
      ],
      "name": "Transfer",
      "type": "event"
    },
    {
      "anonymous": false,
      "inputs": [
        {
          "indexed": true,
          "internalType": "address",
          "name": "user",
          "type": "address"
        },
        {
          "indexed": true,
          "internalType": "address",
          "name": "admin",
          "type": "address"
        }
      ],
      "name": "UserRevoked",
      "type": "event"
    },
    {
      "anonymous": false,
      "inputs": [
        {
          "indexed": true,
          "internalType": "address",
          "name": "user",
          "type": "address"
        },
        {
          "indexed": true,
          "internalType": "address",
          "name": "admin",
          "type": "address"
        }
      ],
      "name": "UserWhitelisted",
      "type": "event"
    },
    {
      "inputs": [],
      "name": "COMPLIANCE_ROLE",
      "outputs": [
        {
          "internalType": "bytes32",
          "name": "",
          "type": "bytes32"
        }
      ],
      "stateMutability": "view",
      "type": "function"
    },
    {
      "inputs": [],
      "name": "DEFAULT_ADMIN_ROLE",
      "outputs": [
        {
          "internalType": "bytes32",
          "name": "",
          "type": "bytes32"
        }
      ],
      "stateMutability": "view",
      "type": "function"
    },
    {
      "inputs": [
        {
          "internalType": "address",
          "name": "owner",
          "type": "address"
        },
        {
          "internalType": "address",
          "name": "spender",
          "type": "address"
        }
      ],
      "name": "allowance",
      "outputs": [
        {
          "internalType": "uint256",
          "name": "",
          "type": "uint256"
        }
      ],
      "stateMutability": "view",
      "type": "function"
    },
    {
      "inputs": [
        {
          "internalType": "address",
          "name": "spender",
          "type": "address"
        },
        {
          "internalType": "uint256",
          "name": "value",
          "type": "uint256"
        }
      ],
      "name": "approve",
      "outputs": [
        {
          "internalType": "bool",
          "name": "",
          "type": "bool"
        }
      ],
      "stateMutability": "nonpayable",
      "type": "function"
    },
    {
      "inputs": [
        {
          "internalType": "address",
          "name": "account",
          "type": "address"
        }
      ],
      "name": "balanceOf",
      "outputs": [
        {
          "internalType": "uint256",
          "name": "",
          "type": "uint256"
        }
      ],
      "stateMutability": "view",
      "type": "function"
    },
    {
      "inputs": [
        {
          "internalType": "address",
          "name": "_rustAddress",
          "type": "address"
        }
      ],
      "name": "connectToRust",
      "outputs": [],
      "stateMutability": "nonpayable",
      "type": "function"
    },
    {
      "inputs": [],
      "name": "decimals",
      "outputs": [
        {
          "internalType": "uint8",
          "name": "",
          "type": "uint8"
        }
      ],
      "stateMutability": "view",
      "type": "function"
    },
    {
      "inputs": [
        {
          "internalType": "bytes32",
          "name": "role",
          "type": "bytes32"
        }
      ],
      "name": "getRoleAdmin",
      "outputs": [
        {
          "internalType": "bytes32",
          "name": "",
          "type": "bytes32"
        }
      ],
      "stateMutability": "view",
      "type": "function"
    },
    {
      "inputs": [
        {
          "internalType": "address",
          "name": "_user",
          "type": "address"
        }
      ],
      "name": "getUserData",
      "outputs": [
        {
          "internalType": "bool",
          "name": "isWhitelisted",
          "type": "bool"
        },
        {
          "internalType": "uint8",
          "name": "score",
          "type": "uint8"
        }
      ],
      "stateMutability": "view",
      "type": "function"
    },
    {
      "inputs": [
        {
          "internalType": "bytes32",
          "name": "role",
          "type": "bytes32"
        },
        {
          "internalType": "address",
          "name": "account",
          "type": "address"
        }
      ],
      "name": "grantRole",
      "outputs": [],
      "stateMutability": "nonpayable",
      "type": "function"
    },
    {
      "inputs": [
        {
          "internalType": "bytes32",
          "name": "role",
          "type": "bytes32"
        },
        {
          "internalType": "address",
          "name": "account",
          "type": "address"
        }
      ],
      "name": "hasRole",
      "outputs": [
        {
          "internalType": "bool",
          "name": "",
          "type": "bool"
        }
      ],
      "stateMutability": "view",
      "type": "function"
    },
    {
      "inputs": [],
      "name": "isConnected",
      "outputs": [
        {
          "internalType": "bool",
          "name": "",
          "type": "bool"
        }
      ],
      "stateMutability": "view",
      "type": "function"
    },
    {
      "inputs": [],
      "name": "name",
      "outputs": [
        {
          "internalType": "string",
          "name": "",
          "type": "string"
        }
      ],
      "stateMutability": "view",
      "type": "function"
    },
    {
      "inputs": [
        {
          "internalType": "bytes32",
          "name": "role",
          "type": "bytes32"
        },
        {
          "internalType": "address",
          "name": "callerConfirmation",
          "type": "address"
        }
      ],
      "name": "renounceRole",
      "outputs": [],
      "stateMutability": "nonpayable",
      "type": "function"
    },
    {
      "inputs": [
        {
          "internalType": "bytes32",
          "name": "role",
          "type": "bytes32"
        },
        {
          "internalType": "address",
          "name": "account",
          "type": "address"
        }
      ],
      "name": "revokeRole",
      "outputs": [],
      "stateMutability": "nonpayable",
      "type": "function"
    },
    {
      "inputs": [
        {
          "internalType": "address",
          "name": "_user",
          "type": "address"
        }
      ],
      "name": "revokeUser",
      "outputs": [],
      "stateMutability": "nonpayable",
      "type": "function"
    },
    {
      "inputs": [
        {
          "internalType": "bool",
          "name": "_paused",
          "type": "bool"
        }
      ],
      "name": "setSystemPause",
      "outputs": [],
      "stateMutability": "nonpayable",
      "type": "function"
    },
    {
      "inputs": [],
      "name": "stylusLogic",
      "outputs": [
        {
          "internalType": "contract ISentinelStylus",
          "name": "",
          "type": "address"
        }
      ],
      "stateMutability": "view",
      "type": "function"
    },
    {
      "inputs": [
        {
          "internalType": "bytes4",
          "name": "interfaceId",
          "type": "bytes4"
        }
      ],
      "name": "supportsInterface",
      "outputs": [
        {
          "internalType": "bool",
          "name": "",
          "type": "bool"
        }
      ],
      "stateMutability": "view",
      "type": "function"
    },
    {
      "inputs": [],
      "name": "symbol",
      "outputs": [
        {
          "internalType": "string",
          "name": "",
          "type": "string"
        }
      ],
      "stateMutability": "view",
      "type": "function"
    },
    {
      "inputs": [],
      "name": "totalSupply",
      "outputs": [
        {
          "internalType": "uint256",
          "name": "",
          "type": "uint256"
        }
      ],
      "stateMutability": "view",
      "type": "function"
    },
    {
      "inputs": [
        {
          "internalType": "address",
          "name": "to",
          "type": "address"
        },
        {
          "internalType": "uint256",
          "name": "value",
          "type": "uint256"
        }
      ],
      "name": "transfer",
      "outputs": [
        {
          "internalType": "bool",
          "name": "",
          "type": "bool"
        }
      ],
      "stateMutability": "nonpayable",
      "type": "function"
    },
    {
      "inputs": [
        {
          "internalType": "address",
          "name": "from",
          "type": "address"
        },
        {
          "internalType": "address",
          "name": "to",
          "type": "address"
        },
        {
          "internalType": "uint256",
          "name": "value",
          "type": "uint256"
        }
      ],
      "name": "transferFrom",
      "outputs": [
        {
          "internalType": "bool",
          "name": "",
          "type": "bool"
        }
      ],
      "stateMutability": "nonpayable",
      "type": "function"
    },
    {
      "inputs": [
        {
          "internalType": "uint8",
          "name": "_minActive",
          "type": "uint8"
        },
        {
          "internalType": "uint8",
          "name": "_minVip",
          "type": "uint8"
        }
      ],
      "name": "updatePolicyConfig",
      "outputs": [],
      "stateMutability": "nonpayable",
      "type": "function"
    },
    {
      "inputs": [
        {
          "internalType": "address",
          "name": "_user",
          "type": "address"
        },
        {
          "internalType": "uint8",
          "name": "_score",
          "type": "uint8"
        }
      ],
      "name": "updateUserScore",
      "outputs": [],
      "stateMutability": "nonpayable",
      "type": "function"
    },
    {
      "inputs": [
        {
          "internalType": "address",
          "name": "_user",
          "type": "address"
        }
      ],
      "name": "whitelistUser",
      "outputs": [],
      "stateMutability": "nonpayable",
      "type": "function"
    }
  ],
  "bytecode": "0x60806040525f600660146101000a81548160ff021916908315150217905550348015610029575f5ffd5b506040518060400160405280601081526020017f53656e74696e656c205257412050726f000000000000000000000000000000008152506040518060400160405280600481526020017f53454e540000000000000000000000000000000000000000000000000000000081525081600390816100a591906108f9565b5080600490816100b591906108f9565b5050506100ca5f5f1b3361013860201b60201c565b506100fb7f442a94f1a1fac79af32856af2a64f63648cfa2ef3b98610a5bb7cbec4cee69853361013860201b60201c565b506101333361010e61022e60201b60201c565b600a61011a9190610b30565b620f42406101289190610b7a565b61023660201b60201c565b610dda565b5f61014983836102bb60201b60201c565b61022457600160055f8581526020019081526020015f205f015f8473ffffffffffffffffffffffffffffffffffffffff1673ffffffffffffffffffffffffffffffffffffffff1681526020019081526020015f205f6101000a81548160ff0219169083151502179055506101c161031f60201b60201c565b73ffffffffffffffffffffffffffffffffffffffff168273ffffffffffffffffffffffffffffffffffffffff16847f2f8788117e7eff1d82e926ec794901d17c78024a50270940304540a733656f0d60405160405180910390a460019050610228565b5f90505b92915050565b5f6012905090565b5f73ffffffffffffffffffffffffffffffffffffffff168273ffffffffffffffffffffffffffffffffffffffff16036102a6575f6040517fec442f0500000000000000000000000000000000000000000000000000000000815260040161029d9190610bfa565b60405180910390fd5b6102b75f838361032660201b60201c565b5050565b5f60055f8481526020019081526020015f205f015f8373ffffffffffffffffffffffffffffffffffffffff1673ffffffffffffffffffffffffffffffffffffffff1681526020019081526020015f205f9054906101000a900460ff16905092915050565b5f33905090565b600660149054906101000a900460ff16801561036e57505f73ffffffffffffffffffffffffffffffffffffffff168373ffffffffffffffffffffffffffffffffffffffff1614155b80156103a657505f73ffffffffffffffffffffffffffffffffffffffff168273ffffffffffffffffffffffffffffffffffffffff1614155b1561048d575f60065f9054906101000a900473ffffffffffffffffffffffffffffffffffffffff1673ffffffffffffffffffffffffffffffffffffffff1663cc1dd94f8585856040518463ffffffff1660e01b815260040161040a93929190610c22565b602060405180830381865afa158015610425573d5f5f3e3d5ffd5b505050506040513d601f19601f820116820180604052508101906104499190610c90565b90508061048b576040517f08c379a000000000000000000000000000000000000000000000000000000000815260040161048290610d3b565b60405180910390fd5b505b61049e8383836104a360201b60201c565b505050565b5f73ffffffffffffffffffffffffffffffffffffffff168373ffffffffffffffffffffffffffffffffffffffff16036104f3578060025f8282546104e79190610d59565b925050819055506105c1565b5f5f5f8573ffffffffffffffffffffffffffffffffffffffff1673ffffffffffffffffffffffffffffffffffffffff1681526020019081526020015f205490508181101561057c578381836040517fe450d38c00000000000000000000000000000000000000000000000000000000815260040161057393929190610d8c565b60405180910390fd5b8181035f5f8673ffffffffffffffffffffffffffffffffffffffff1673ffffffffffffffffffffffffffffffffffffffff1681526020019081526020015f2081905550505b5f73ffffffffffffffffffffffffffffffffffffffff168273ffffffffffffffffffffffffffffffffffffffff1603610608578060025f8282540392505081905550610652565b805f5f8473ffffffffffffffffffffffffffffffffffffffff1673ffffffffffffffffffffffffffffffffffffffff1681526020019081526020015f205f82825401925050819055505b8173ffffffffffffffffffffffffffffffffffffffff168373ffffffffffffffffffffffffffffffffffffffff167fddf252ad1be2c89b69c2b068fc378daa952ba7f163c4a11628f55a4df523b3ef836040516106af9190610dc1565b60405180910390a3505050565b5f81519050919050565b7f4e487b71000000000000000000000000000000000000000000000000000000005f52604160045260245ffd5b7f4e487b71000000000000000000000000000000000000000000000000000000005f52602260045260245ffd5b5f600282049050600182168061073757607f821691505b60208210810361074a576107496106f3565b5b50919050565b5f819050815f5260205f209050919050565b5f6020601f8301049050919050565b5f82821b905092915050565b5f600883026107ac7fffffffffffffffffffffffffffffffffffffffffffffffffffffffffffffffff82610771565b6107b68683610771565b95508019841693508086168417925050509392505050565b5f819050919050565b5f819050919050565b5f6107fa6107f56107f0846107ce565b6107d7565b6107ce565b9050919050565b5f819050919050565b610813836107e0565b61082761081f82610801565b84845461077d565b825550505050565b5f5f905090565b61083e61082f565b61084981848461080a565b505050565b5b8181101561086c576108615f82610836565b60018101905061084f565b5050565b601f8211156108b15761088281610750565b61088b84610762565b8101602085101561089a578190505b6108ae6108a685610762565b83018261084e565b50505b505050565b5f82821c905092915050565b5f6108d15f19846008026108b6565b1980831691505092915050565b5f6108e983836108c2565b9150826002028217905092915050565b610902826106bc565b67ffffffffffffffff81111561091b5761091a6106c6565b5b6109258254610720565b610930828285610870565b5f60209050601f831160018114610961575f841561094f578287015190505b61095985826108de565b8655506109c0565b601f19841661096f86610750565b5f5b8281101561099657848901518255600182019150602085019450602081019050610971565b868310156109b357848901516109af601f8916826108c2565b8355505b6001600288020188555050505b505050505050565b7f4e487b71000000000000000000000000000000000000000000000000000000005f52601160045260245ffd5b5f8160011c9050919050565b5f5f8291508390505b6001851115610a4a57808604811115610a2657610a256109c8565b5b6001851615610a355780820291505b8081029050610a43856109f5565b9450610a0a565b94509492505050565b5f82610a625760019050610b1d565b81610a6f575f9050610b1d565b8160018114610a855760028114610a8f57610abe565b6001915050610b1d565b60ff841115610aa157610aa06109c8565b5b8360020a915084821115610ab857610ab76109c8565b5b50610b1d565b5060208310610133831016604e8410600b8410161715610af35782820a905083811115610aee57610aed6109c8565b5b610b1d565b610b008484846001610a01565b92509050818404811115610b1757610b166109c8565b5b81810290505b9392505050565b5f60ff82169050919050565b5f610b3a826107ce565b9150610b4583610b24565b9250610b727fffffffffffffffffffffffffffffffffffffffffffffffffffffffffffffffff8484610a53565b905092915050565b5f610b84826107ce565b9150610b8f836107ce565b9250828202610b9d816107ce565b91508282048414831517610bb457610bb36109c8565b5b5092915050565b5f73ffffffffffffffffffffffffffffffffffffffff82169050919050565b5f610be482610bbb565b9050919050565b610bf481610bda565b82525050565b5f602082019050610c0d5f830184610beb565b92915050565b610c1c816107ce565b82525050565b5f606082019050610c355f830186610beb565b610c426020830185610beb565b610c4f6040830184610c13565b949350505050565b5f5ffd5b5f8115159050919050565b610c6f81610c5b565b8114610c79575f5ffd5b50565b5f81519050610c8a81610c66565b92915050565b5f60208284031215610ca557610ca4610c57565b5b5f610cb284828501610c7c565b91505092915050565b5f82825260208201905092915050565b7f53656e74696e656c3a205472616e736665722044656e6965642028506f6c69635f8201527f792056696f6c6174696f6e290000000000000000000000000000000000000000602082015250565b5f610d25602c83610cbb565b9150610d3082610ccb565b604082019050919050565b5f6020820190508181035f830152610d5281610d19565b9050919050565b5f610d63826107ce565b9150610d6e836107ce565b9250828201905080821115610d8657610d856109c8565b5b92915050565b5f606082019050610d9f5f830186610beb565b610dac6020830185610c13565b610db96040830184610c13565b949350505050565b5f602082019050610dd45f830184610c13565b92915050565b61247b80610de75f395ff3fe608060405234801561000f575f5ffd5b506004361061018c575f3560e01c806370a08231116100dc578063a217fddf11610095578063dd62ed3e1161006f578063dd62ed3e14610492578063ef097fc4146104c2578063f11b18bc146104de578063ffc9896b146104fc5761018c565b8063a217fddf14610428578063a9059cbb14610446578063d547741f146104765761018c565b806370a08231146103545780637187da4d1461038457806384dd2214146103a0578063887f70b8146103bc57806391d14854146103da57806395d89b411461040a5761018c565b806323b872dd11610149578063313ce56711610123578063313ce567146102e257806336568abe146103005780634a4c560d1461031c57806362b852f3146103385761018c565b806323b872dd14610266578063248a9ca3146102965780632f2ff15d146102c65761018c565b806301ffc9a714610190578063062d3bd7146101c057806306fdde03146101de578063095ea7b3146101fc57806316d9bee61461022c57806318160ddd14610248575b5f5ffd5b6101aa60048036038101906101a59190611b72565b61052d565b6040516101b79190611bb7565b60405180910390f35b6101c86105a6565b6040516101d59190611be8565b60405180910390f35b6101e66105ca565b6040516101f39190611c71565b60405180910390f35b61021660048036038101906102119190611d1e565b61065a565b6040516102239190611bb7565b60405180910390f35b61024660048036038101906102419190611d86565b61067c565b005b610250610713565b60405161025d9190611dc0565b60405180910390f35b610280600480360381019061027b9190611dd9565b61071c565b60405161028d9190611bb7565b60405180910390f35b6102b060048036038101906102ab9190611e53565b61074a565b6040516102bd9190611be8565b60405180910390f35b6102e060048036038101906102db9190611e7e565b610767565b005b6102ea610789565b6040516102f79190611ed7565b60405180910390f35b61031a60048036038101906103159190611e7e565b610791565b005b61033660048036038101906103319190611ef0565b61080c565b005b610352600480360381019061034d9190611f45565b61091b565b005b61036e60048036038101906103699190611ef0565b610a05565b60405161037b9190611dc0565b60405180910390f35b61039e60048036038101906103999190611f83565b610a4a565b005b6103ba60048036038101906103b59190611ef0565b610b67565b005b6103c4610db2565b6040516103d19190611bb7565b60405180910390f35b6103f460048036038101906103ef9190611e7e565b610dc5565b6040516104019190611bb7565b60405180910390f35b610412610e29565b60405161041f9190611c71565b60405180910390f35b610430610eb9565b60405161043d9190611be8565b60405180910390f35b610460600480360381019061045b9190611d1e565b610ebf565b60405161046d9190611bb7565b60405180910390f35b610490600480360381019061048b9190611e7e565b610ee1565b005b6104ac60048036038101906104a79190611fc1565b610f03565b6040516104b99190611dc0565b60405180910390f35b6104dc60048036038101906104d79190611ef0565b610f85565b005b6104e6611094565b6040516104f3919061205a565b60405180910390f35b61051660048036038101906105119190611ef0565b6110b9565b604051610524929190612073565b60405180910390f35b5f7f7965db0b000000000000000000000000000000000000000000000000000000007bffffffffffffffffffffffffffffffffffffffffffffffffffffffff1916827bffffffffffffffffffffffffffffffffffffffffffffffffffffffff1916148061059f575061059e8261117c565b5b9050919050565b7f442a94f1a1fac79af32856af2a64f63648cfa2ef3b98610a5bb7cbec4cee698581565b6060600380546105d9906120c7565b80601f0160208091040260200160405190810160405280929190818152602001828054610605906120c7565b80156106505780601f1061062757610100808354040283529160200191610650565b820191905f5260205f20905b81548152906001019060200180831161063357829003601f168201915b5050505050905090565b5f5f6106646111e5565b90506106718185856111ec565b600191505092915050565b5f5f1b610688816111fe565b60065f9054906101000a900473ffffffffffffffffffffffffffffffffffffffff1673ffffffffffffffffffffffffffffffffffffffff16630ff5ce72836040518263ffffffff1660e01b81526004016106e29190611bb7565b5f604051808303815f87803b1580156106f9575f5ffd5b505af115801561070b573d5f5f3e3d5ffd5b505050505050565b5f600254905090565b5f5f6107266111e5565b9050610733858285611212565b61073e8585856112a5565b60019150509392505050565b5f60055f8381526020019081526020015f20600101549050919050565b6107708261074a565b610779816111fe565b6107838383611395565b50505050565b5f6012905090565b6107996111e5565b73ffffffffffffffffffffffffffffffffffffffff168173ffffffffffffffffffffffffffffffffffffffff16146107fd576040517f6697b23200000000000000000000000000000000000000000000000000000000815260040160405180910390fd5b610807828261147f565b505050565b7f442a94f1a1fac79af32856af2a64f63648cfa2ef3b98610a5bb7cbec4cee6985610836816111fe565b60065f9054906101000a900473ffffffffffffffffffffffffffffffffffffffff1673ffffffffffffffffffffffffffffffffffffffff1663e43252d7836040518263ffffffff1660e01b81526004016108909190612106565b5f604051808303815f87803b1580156108a7575f5ffd5b505af11580156108b9573d5f5f3e3d5ffd5b505050503373ffffffffffffffffffffffffffffffffffffffff168273ffffffffffffffffffffffffffffffffffffffff167f4bc18aa4b0095c9a3b5cdf42d2322d5a145591b04045988a995a5da42607545760405160405180910390a35050565b5f5f1b610927816111fe565b60065f9054906101000a900473ffffffffffffffffffffffffffffffffffffffff1673ffffffffffffffffffffffffffffffffffffffff16637c25523184846040518363ffffffff1660e01b815260040161098392919061211f565b5f604051808303815f87803b15801561099a575f5ffd5b505af11580156109ac573d5f5f3e3d5ffd5b505050503373ffffffffffffffffffffffffffffffffffffffff167fa7af2d0e3804dc4f47ba49771ca2ec9fd2472341735fde69f639c994703ead5a84846040516109f892919061211f565b60405180910390a2505050565b5f5f5f8373ffffffffffffffffffffffffffffffffffffffff1673ffffffffffffffffffffffffffffffffffffffff1681526020019081526020015f20549050919050565b7f442a94f1a1fac79af32856af2a64f63648cfa2ef3b98610a5bb7cbec4cee6985610a74816111fe565b60065f9054906101000a900473ffffffffffffffffffffffffffffffffffffffff1673ffffffffffffffffffffffffffffffffffffffff166305ddd11a84846040518363ffffffff1660e01b8152600401610ad0929190612146565b5f604051808303815f87803b158015610ae7575f5ffd5b505af1158015610af9573d5f5f3e3d5ffd5b505050503373ffffffffffffffffffffffffffffffffffffffff168373ffffffffffffffffffffffffffffffffffffffff167f9f37f38103061170ff9116849e639186bd843aa6b06716eec4e09e23e997ce0184604051610b5a9190611ed7565b60405180910390a3505050565b5f5f1b610b73816111fe565b600660149054906101000a900460ff1615610bc3576040517f08c379a0000000000000000000000000000000000000000000000000000000008152600401610bba906121b7565b60405180910390fd5b8160065f6101000a81548173ffffffffffffffffffffffffffffffffffffffff021916908373ffffffffffffffffffffffffffffffffffffffff16021790555060065f9054906101000a900473ffffffffffffffffffffffffffffffffffffffff1673ffffffffffffffffffffffffffffffffffffffff166319ab453c306040518263ffffffff1660e01b8152600401610c5d9190612106565b5f604051808303815f87803b158015610c74575f5ffd5b505af1158015610c86573d5f5f3e3d5ffd5b5050505060065f9054906101000a900473ffffffffffffffffffffffffffffffffffffffff1673ffffffffffffffffffffffffffffffffffffffff1663e43252d7336040518263ffffffff1660e01b8152600401610ce49190612106565b5f604051808303815f87803b158015610cfb575f5ffd5b505af1925050508015610d0c575060015b5060065f9054906101000a900473ffffffffffffffffffffffffffffffffffffffff1673ffffffffffffffffffffffffffffffffffffffff166305ddd11a3360646040518363ffffffff1660e01b8152600401610d6a92919061220e565b5f604051808303815f87803b158015610d81575f5ffd5b505af1925050508015610d92575060015b506001600660146101000a81548160ff0219169083151502179055505050565b600660149054906101000a900460ff1681565b5f60055f8481526020019081526020015f205f015f8373ffffffffffffffffffffffffffffffffffffffff1673ffffffffffffffffffffffffffffffffffffffff1681526020019081526020015f205f9054906101000a900460ff16905092915050565b606060048054610e38906120c7565b80601f0160208091040260200160405190810160405280929190818152602001828054610e64906120c7565b8015610eaf5780601f10610e8657610100808354040283529160200191610eaf565b820191905f5260205f20905b815481529060010190602001808311610e9257829003601f168201915b5050505050905090565b5f5f1b81565b5f5f610ec96111e5565b9050610ed68185856112a5565b600191505092915050565b610eea8261074a565b610ef3816111fe565b610efd838361147f565b50505050565b5f60015f8473ffffffffffffffffffffffffffffffffffffffff1673ffffffffffffffffffffffffffffffffffffffff1681526020019081526020015f205f8373ffffffffffffffffffffffffffffffffffffffff1673ffffffffffffffffffffffffffffffffffffffff1681526020019081526020015f2054905092915050565b7f442a94f1a1fac79af32856af2a64f63648cfa2ef3b98610a5bb7cbec4cee6985610faf816111fe565b60065f9054906101000a900473ffffffffffffffffffffffffffffffffffffffff1673ffffffffffffffffffffffffffffffffffffffff16638ab1d681836040518263ffffffff1660e01b81526004016110099190612106565b5f604051808303815f87803b158015611020575f5ffd5b505af1158015611032573d5f5f3e3d5ffd5b505050503373ffffffffffffffffffffffffffffffffffffffff168273ffffffffffffffffffffffffffffffffffffffff167f3e5fce8f3e84209fe92cc4d656399f08889d1e6b8ca2cf1ff08baed74cd5af3f60405160405180910390a35050565b60065f9054906101000a900473ffffffffffffffffffffffffffffffffffffffff1681565b5f5f600660149054906101000a900460ff166110da575f5f91509150611177565b60065f9054906101000a900473ffffffffffffffffffffffffffffffffffffffff1673ffffffffffffffffffffffffffffffffffffffff1663ea0d5dcd846040518263ffffffff1660e01b81526004016111349190612106565b6040805180830381865afa15801561114e573d5f5f3e3d5ffd5b505050506040513d601f19601f82011682018060405250810190611172919061225d565b915091505b915091565b5f7f01ffc9a7000000000000000000000000000000000000000000000000000000007bffffffffffffffffffffffffffffffffffffffffffffffffffffffff1916827bffffffffffffffffffffffffffffffffffffffffffffffffffffffff1916149050919050565b5f33905090565b6111f98383836001611569565b505050565b61120f8161120a6111e5565b611738565b50565b5f61121d8484610f03565b90507fffffffffffffffffffffffffffffffffffffffffffffffffffffffffffffffff81101561129f5781811015611290578281836040517ffb8f41b20000000000000000000000000000000000000000000000000000000081526004016112879392919061229b565b60405180910390fd5b61129e84848484035f611569565b5b50505050565b5f73ffffffffffffffffffffffffffffffffffffffff168373ffffffffffffffffffffffffffffffffffffffff1603611315575f6040517f96c6fd1e00000000000000000000000000000000000000000000000000000000815260040161130c9190612106565b60405180910390fd5b5f73ffffffffffffffffffffffffffffffffffffffff168273ffffffffffffffffffffffffffffffffffffffff1603611385575f6040517fec442f0500000000000000000000000000000000000000000000000000000000815260040161137c9190612106565b60405180910390fd5b611390838383611789565b505050565b5f6113a08383610dc5565b61147557600160055f8581526020019081526020015f205f015f8473ffffffffffffffffffffffffffffffffffffffff1673ffffffffffffffffffffffffffffffffffffffff1681526020019081526020015f205f6101000a81548160ff0219169083151502179055506114126111e5565b73ffffffffffffffffffffffffffffffffffffffff168273ffffffffffffffffffffffffffffffffffffffff16847f2f8788117e7eff1d82e926ec794901d17c78024a50270940304540a733656f0d60405160405180910390a460019050611479565b5f90505b92915050565b5f61148a8383610dc5565b1561155f575f60055f8581526020019081526020015f205f015f8473ffffffffffffffffffffffffffffffffffffffff1673ffffffffffffffffffffffffffffffffffffffff1681526020019081526020015f205f6101000a81548160ff0219169083151502179055506114fc6111e5565b73ffffffffffffffffffffffffffffffffffffffff168273ffffffffffffffffffffffffffffffffffffffff16847ff6391f5c32d9c69d2a47ea670b442974b53935d1edc7fd64eb21e047a839171b60405160405180910390a460019050611563565b5f90505b92915050565b5f73ffffffffffffffffffffffffffffffffffffffff168473ffffffffffffffffffffffffffffffffffffffff16036115d9575f6040517fe602df050000000000000000000000000000000000000000000000000000000081526004016115d09190612106565b60405180910390fd5b5f73ffffffffffffffffffffffffffffffffffffffff168373ffffffffffffffffffffffffffffffffffffffff1603611649575f6040517f94280d620000000000000000000000000000000000000000000000000000000081526004016116409190612106565b60405180910390fd5b8160015f8673ffffffffffffffffffffffffffffffffffffffff1673ffffffffffffffffffffffffffffffffffffffff1681526020019081526020015f205f8573ffffffffffffffffffffffffffffffffffffffff1673ffffffffffffffffffffffffffffffffffffffff1681526020019081526020015f20819055508015611732578273ffffffffffffffffffffffffffffffffffffffff168473ffffffffffffffffffffffffffffffffffffffff167f8c5be1e5ebec7d5bd14f71427d1e84f3dd0314c0f7b2291e5b200ac8c7c3b925846040516117299190611dc0565b60405180910390a35b50505050565b6117428282610dc5565b6117855780826040517fe2517d3f00000000000000000000000000000000000000000000000000000000815260040161177c9291906122d0565b60405180910390fd5b5050565b600660149054906101000a900460ff1680156117d157505f73ffffffffffffffffffffffffffffffffffffffff168373ffffffffffffffffffffffffffffffffffffffff1614155b801561180957505f73ffffffffffffffffffffffffffffffffffffffff168273ffffffffffffffffffffffffffffffffffffffff1614155b156118f0575f60065f9054906101000a900473ffffffffffffffffffffffffffffffffffffffff1673ffffffffffffffffffffffffffffffffffffffff1663cc1dd94f8585856040518463ffffffff1660e01b815260040161186d939291906122f7565b602060405180830381865afa158015611888573d5f5f3e3d5ffd5b505050506040513d601f19601f820116820180604052508101906118ac919061232c565b9050806118ee576040517f08c379a00000000000000000000000000000000000000000000000000000000081526004016118e5906123c7565b60405180910390fd5b505b6118fb838383611900565b505050565b5f73ffffffffffffffffffffffffffffffffffffffff168373ffffffffffffffffffffffffffffffffffffffff1603611950578060025f8282546119449190612412565b92505081905550611a1e565b5f5f5f8573ffffffffffffffffffffffffffffffffffffffff1673ffffffffffffffffffffffffffffffffffffffff1681526020019081526020015f20549050818110156119d9578381836040517fe450d38c0000000000000000000000000000000000000000000000000000000081526004016119d09392919061229b565b60405180910390fd5b8181035f5f8673ffffffffffffffffffffffffffffffffffffffff1673ffffffffffffffffffffffffffffffffffffffff1681526020019081526020015f2081905550505b5f73ffffffffffffffffffffffffffffffffffffffff168273ffffffffffffffffffffffffffffffffffffffff1603611a65578060025f8282540392505081905550611aaf565b805f5f8473ffffffffffffffffffffffffffffffffffffffff1673ffffffffffffffffffffffffffffffffffffffff1681526020019081526020015f205f82825401925050819055505b8173ffffffffffffffffffffffffffffffffffffffff168373ffffffffffffffffffffffffffffffffffffffff167fddf252ad1be2c89b69c2b068fc378daa952ba7f163c4a11628f55a4df523b3ef83604051611b0c9190611dc0565b60405180910390a3505050565b5f5ffd5b5f7fffffffff0000000000000000000000000000000000000000000000000000000082169050919050565b611b5181611b1d565b8114611b5b575f5ffd5b50565b5f81359050611b6c81611b48565b92915050565b5f60208284031215611b8757611b86611b19565b5b5f611b9484828501611b5e565b91505092915050565b5f8115159050919050565b611bb181611b9d565b82525050565b5f602082019050611bca5f830184611ba8565b92915050565b5f819050919050565b611be281611bd0565b82525050565b5f602082019050611bfb5f830184611bd9565b92915050565b5f81519050919050565b5f82825260208201905092915050565b8281835e5f83830152505050565b5f601f19601f8301169050919050565b5f611c4382611c01565b611c4d8185611c0b565b9350611c5d818560208601611c1b565b611c6681611c29565b840191505092915050565b5f6020820190508181035f830152611c898184611c39565b905092915050565b5f73ffffffffffffffffffffffffffffffffffffffff82169050919050565b5f611cba82611c91565b9050919050565b611cca81611cb0565b8114611cd4575f5ffd5b50565b5f81359050611ce581611cc1565b92915050565b5f819050919050565b611cfd81611ceb565b8114611d07575f5ffd5b50565b5f81359050611d1881611cf4565b92915050565b5f5f60408385031215611d3457611d33611b19565b5b5f611d4185828601611cd7565b9250506020611d5285828601611d0a565b9150509250929050565b611d6581611b9d565b8114611d6f575f5ffd5b50565b5f81359050611d8081611d5c565b92915050565b5f60208284031215611d9b57611d9a611b19565b5b5f611da884828501611d72565b91505092915050565b611dba81611ceb565b82525050565b5f602082019050611dd35f830184611db1565b92915050565b5f5f5f60608486031215611df057611def611b19565b5b5f611dfd86828701611cd7565b9350506020611e0e86828701611cd7565b9250506040611e1f86828701611d0a565b9150509250925092565b611e3281611bd0565b8114611e3c575f5ffd5b50565b5f81359050611e4d81611e29565b92915050565b5f60208284031215611e6857611e67611b19565b5b5f611e7584828501611e3f565b91505092915050565b5f5f60408385031215611e9457611e93611b19565b5b5f611ea185828601611e3f565b9250506020611eb285828601611cd7565b9150509250929050565b5f60ff82169050919050565b611ed181611ebc565b82525050565b5f602082019050611eea5f830184611ec8565b92915050565b5f60208284031215611f0557611f04611b19565b5b5f611f1284828501611cd7565b91505092915050565b611f2481611ebc565b8114611f2e575f5ffd5b50565b5f81359050611f3f81611f1b565b92915050565b5f5f60408385031215611f5b57611f5a611b19565b5b5f611f6885828601611f31565b9250506020611f7985828601611f31565b9150509250929050565b5f5f60408385031215611f9957611f98611b19565b5b5f611fa685828601611cd7565b9250506020611fb785828601611f31565b9150509250929050565b5f5f60408385031215611fd757611fd6611b19565b5b5f611fe485828601611cd7565b9250506020611ff585828601611cd7565b9150509250929050565b5f819050919050565b5f61202261201d61201884611c91565b611fff565b611c91565b9050919050565b5f61203382612008565b9050919050565b5f61204482612029565b9050919050565b6120548161203a565b82525050565b5f60208201905061206d5f83018461204b565b92915050565b5f6040820190506120865f830185611ba8565b6120936020830184611ec8565b9392505050565b7f4e487b71000000000000000000000000000000000000000000000000000000005f52602260045260245ffd5b5f60028204905060018216806120de57607f821691505b6020821081036120f1576120f061209a565b5b50919050565b61210081611cb0565b82525050565b5f6020820190506121195f8301846120f7565b92915050565b5f6040820190506121325f830185611ec8565b61213f6020830184611ec8565b9392505050565b5f6040820190506121595f8301856120f7565b6121666020830184611ec8565b9392505050565b7f416c726561647920636f6e6e65637465640000000000000000000000000000005f82015250565b5f6121a1601183611c0b565b91506121ac8261216d565b602082019050919050565b5f6020820190508181035f8301526121ce81612195565b9050919050565b5f819050919050565b5f6121f86121f36121ee846121d5565b611fff565b611ebc565b9050919050565b612208816121de565b82525050565b5f6040820190506122215f8301856120f7565b61222e60208301846121ff565b9392505050565b5f8151905061224381611d5c565b92915050565b5f8151905061225781611f1b565b92915050565b5f5f6040838503121561227357612272611b19565b5b5f61228085828601612235565b925050602061229185828601612249565b9150509250929050565b5f6060820190506122ae5f8301866120f7565b6122bb6020830185611db1565b6122c86040830184611db1565b949350505050565b5f6040820190506122e35f8301856120f7565b6122f06020830184611bd9565b9392505050565b5f60608201905061230a5f8301866120f7565b61231760208301856120f7565b6123246040830184611db1565b949350505050565b5f6020828403121561234157612340611b19565b5b5f61234e84828501612235565b91505092915050565b7f53656e74696e656c3a205472616e736665722044656e6965642028506f6c69635f8201527f792056696f6c6174696f6e290000000000000000000000000000000000000000602082015250565b5f6123b1602c83611c0b565b91506123bc82612357565b604082019050919050565b5f6020820190508181035f8301526123de816123a5565b9050919050565b7f4e487b71000000000000000000000000000000000000000000000000000000005f52601160045260245ffd5b5f61241c82611ceb565b915061242783611ceb565b925082820190508082111561243f5761243e6123e5565b5b9291505056fea2646970667358221220076c0625f0432bbc98ab4cdb0c27f1998db6eb398de9bf3314d9bd496f81527264736f6c634300081c0033",
  "linkReferences": {},
  "deployedLinkReferences": {},
  "immutableReferences": {},
  "inputSourceName": "project/contracts/SentinelToken.sol",
  "buildInfoId": "solc-0_8_28-996a518a44f8a7ab160ea08e326a5f5384354dcd"
}